:100000000C944F010C946E010C946E010C946E01D3
:100010000C946E010C946E010C946E010C946E01A4
:100020000C946E010C9428270C946E010C946E01B4
:100030000C946E010C946E010C946E010C949D2630
:100040000C949D260C946E010C946E010C946E0120
:100050000C946E010C946E010C946E010C946E0164
:100060000C946E010C946E010C946E010C946E0154
:100070000C946E010C946E010C946E010C946E0144
:100080000C946E010C946E010C946E01F916FF161F
:100090000217051708170B1711170E171417171744
:1000A0001A1720172317261729171D17F616FC16DF
:1000B000554E4B4F574E004661696C656420746F16
:1000C000206372656174652053656D6170686F723D
:1000D00065004661696C656420746F2063726561B8
:1000E0007465205369676E616C004B65726E656C58
:1000F0002066756E6374696F6E206E6F7420696D13
:10010000706C656D656E74656400446576696365E1
:1001100020447269766572204572726F7200576171
:10012000746368646F6720526573746172740054FD
:10013000696D6572204F766572666C6F7700556EDB
:1001400068616E646C656420496E74657272757066
:100150007420566563746F72004C6F7720566F6C15
:1001600074616765004578747261205461736B2017
:10017000737461727465642C206973206E726B5F96
:100180006366672E68206F6B3F0049646C65206F63
:1001900072204B65726E656C20537461636B204FE7
:1001A000766572666C6F7700556E657870656374FE
:1001B00065642052657374617274004475706C6973
:1001C0006361746564205461736B20494400536318
:1001D000686564756C6572204D697373656420573A
:1001E000616B657570005461736B20526573657245
:1001F00076652056696F6C6174656400526573653D
:10020000727665204572726F7220696E2053636842
:100210006564756C657200496E76616C6964205323
:100220007461636B20506F696E7465720054617302
:100230006B20537461636B204F766572666C6F77C9
:1002400000537461636B20776173206E6F74206458
:100250006566696E6564206173206C6172676520F4
:10026000656E6F7567682100293A20002A4E524B4F
:10027000204552524F5228000D0A535441434B20FF
:1002800044554D500D0A0045464765666700202BD2
:100290002D2E303132333435363738396800112459
:1002A0001FBECFEFD0E1DEBFCDBF15E0A0E0B1E0D3
:1002B000ECE1FAE500E00BBF02C007900D92AE3D05
:1002C000B107D9F719E0AEEDB5E001C01D92A93A2A
:1002D000B107E1F70E9458020C940D2D0C9456279B
:1002E0006F927F928F929F92AF92BF92CF92DF9246
:1002F000EF92FF920F931F9302EE15E060E375E01B
:10030000C8010E94132840E850E06EE876E0C8017A
:100310000E948B28FF24F394F092EA05F092E905FD
:1003200023E0E22EE092EC05F092ED051092EE054E
:100330001092EF051092F0051092F105612C9AECE5
:10034000792E9AE9892E9BE3992E6092F20570929C
:10035000F3058092F4059092F5051092F60510923F
:10036000F7051092F8051092F905A12C81EEB82E30
:1003700085EFC82E85E0D82EA092FA05B092FB0535
:10038000C092FC05D092FD051092FE051092FF056B
:1003900010920006109201061092020610920306B7
:1003A0001092040610920506F092EB05C8010E9417
:1003B0003B1F03E917E065E075E0C8010E941328C0
:1003C00040E850E06AE076E0C8010E948B28F09295
:1003D0009B07F0929A07E0929D07F0929E07109279
:1003E0009F071092A0071092A1071092A207609297
:1003F000A3077092A4078092A5079092A607109277
:10040000A7071092A8071092A9071092AA07A09216
:10041000AB07B092AC07C092AD07D092AE07109276
:10042000AF071092B0071092B1071092B207109266
:10043000B3071092B4071092B5071092B607F09266
:100440009C07C8010E943B1F1F910F91FF90EF90E6
:10045000DF90CF90BF90AF909F908F907F906F90E4
:1004600008950F931F93CF93DF930E94751C9927D4
:100470009F938F9380E091E09F938F930E948B2AAC
:10048000C0E0D0E00F900F900F900F9000E111E0CE
:10049000DF93CF931F930F930E948B2A0E94E11248
:1004A0000E94351E21960F900F900F900F90F0CF65
:1004B000CFEFD0E1DEBFCDBF0E94480E87E090E0D5
:1004C0000E94761280E291E00E94A22A0E941015FA
:1004D00020E030E040E050E060E070E080E090E05C
:1004E0000E94A1200E9470010E94AF1480E090E061
:1004F0000C940D2D8F929F92AF92BF92CF92DF926C
:10050000EF92FF920F931F93CF93DF935B016C01E8
:1005100028EE33E040E050E00E94AC2C79018A01E3
:10052000CA01B9012FEF3FEF40E050E00E94AC2C30
:100530004901C801B7012FEF3FEF40E050E00E94B2
:10054000AC2C8B01DF92CF92BF92AF9280E391E00F
:100550009F938F930E948B2AC0E0D0E08DB79EB707
:1005600006960FB6F8949EBF0FBE8DBF05C08FEFE5
:100570009FEF0E944F262196C815D905C1F7011596
:10058000110519F0C8010E944F268AE491E00E94EB
:10059000A22ADF91CF911F910F91FF90EF90DF90F2
:1005A000CF90BF90AF909F908F9008950F931F931F
:1005B000CF93DF930E94751C99279F938F9385E5B6
:1005C00091E09F938F930E948B2AC0E0D0E00F9020
:1005D0000F900F900F9005E611E0DF93CF931F93DC
:1005E0000F930E948B2A60E876E988E990E00E94E8
:1005F0007A020E94351E21960F900F900F900F9057
:10060000ECCF0F931F93CF93DF930E94751C992714
:100610009F938F9385E791E09F938F930E948B2AFE
:10062000C0E0D0E00F900F900F900F9005E811E020
:10063000DF93CF931F930F930E948B2A60E876E994
:1006400088E990E00E947A020E94351E21960F9060
:100650000F900F900F90ECCF0F931F93CF93DF93DA
:100660000E94751C99279F938F9385E991E09F9332
:100670008F930E948B2AC0E0D0E00F900F900F90D4
:100680000F9005EA11E0DF93CF931F930F930E9421
:100690008B2A60E876E988E990E00E947A020E945D
:1006A000351E21960F900F900F900F90ECCF0F9367
:1006B0001F93CF93DF930E94751C99279F938F936D
:1006C00085EB91E09F938F930E948B2AC0E0D0E04E
:1006D0000F900F900F900F9005EC11E0DF93CF93E8
:1006E0001F930F930E948B2A60E876E988E990E0D7
:1006F0000E947A020E94351E21960F900F900F9053
:100700000F90ECCF0F931F93CF93DF930E94751C34
:1007100099279F938F9385ED91E09F938F930E94EC
:100720008B2AC0E0D0E00F900F900F900F9005EE55
:1007300011E0DF93CF931F930F930E948B2A60E801
:1007400076E988E990E00E947A020E94351E21969F
:100750000F900F900F900F90ECCF0F931F93CF93AC
:10076000DF930E94751C99279F938F9385EF91E0EB
:100770009F938F930E948B2AC0E0D0E00F900F9040
:100780000F900F9005E012E0DF93CF931F930F932C
:100790000E948B2A60E876E988E990E00E947A025C
:1007A0000E94351E21960F900F900F900F90ECCF66
:1007B0000F931F93CF93DF930E94751C99279F93EC
:1007C0008F9385E192E09F938F930E948B2AC0E0E4
:1007D000D0E00F900F900F900F9004E212E0DF93A3
:1007E000CF931F930F930E948B2A60E876E988E9E4
:1007F00090E00E947A020E94351E21960F900F9081
:100800000F900F90ECCF0F931F93CF93DF930E9425
:10081000751C99279F938F9383E392E09F938F9307
:100820000E948B2AC0E0D0E00F900F900F900F90A5
:1008300002E412E0DF93CF931F930F930E948B2A61
:1008400060E876E988E990E00E947A020E94351E0D
:1008500021960F900F900F900F90ECCF0F931F9356
:10086000CF93DF930E94751C99279F938F9381E507
:1008700092E09F938F930E948B2AC0E0D0E00F906C
:100880000F900F900F9000E612E0DF93CF931F932D
:100890000F930E948B2A60E876E988E990E00E9435
:1008A0007A020E94351E21960F900F900F900F90A4
:1008B000ECCF0F931F93CF93DF930E94751C992762
:1008C0009F938F938FE692E09F938F930E948B2A42
:1008D000C0E0D0E00F900F900F900F900EE712E065
:1008E000DF93CF931F930F930E948B2A60E876E9E2
:1008F00088E990E00E947A020E94351E21960F90AE
:100900000F900F900F90ECCF0F931F93CF93DF9327
:100910000E94751C99279F938F938DE892E09F9377
:100920008F930E948B2AC0E0D0E00F900F900F9021
:100930000F900CE912E0DF93CF931F930F930E9467
:100940008B2A60E876E988E990E00E947A020E94AA
:10095000351E21960F900F900F900F90ECCF0F93B4
:100960001F93CF93DF930E94751C99279F938F93BA
:100970008BEA92E09F938F930E948B2AC0E0D0E095
:100980000F900F900F900F900AEB12E0DF93CF9330
:100990001F930F930E948B2A60E876E988E990E024
:1009A0000E947A020E94351E21960F900F900F90A0
:1009B0000F90ECCF0F931F93CF93DF930E94751C82
:1009C00099279F938F9389EC92E09F938F930E9436
:1009D0008B2AC0E0D0E00F900F900F900F9008EDA1
:1009E00012E0DF93CF931F930F930E948B2A60E84E
:1009F00076E988E990E00E947A020E94351E2196ED
:100A00000F900F900F900F90ECCF0F931F93CF93F9
:100A1000DF930E94751C99279F938F9387EE92E036
:100A20009F938F930E948B2AC0E0D0E00F900F908D
:100A30000F900F9006EF12E0DF93CF931F930F9369
:100A40000E948B2A60E876E988E990E00E947A02A9
:100A50000E94351E21960F900F900F900F90ECCFB3
:100A60000F931F93CF93DF930E94751C99279F9339
:100A70008F9385E093E09F938F930E948B2AC0E031
:100A8000D0E00F900F900F900F9004E113E0DF93F0
:100A9000CF931F930F930E948B2A60E871ED80EF34
:100AA00098E00E947A020E94351E21960F900F90C6
:100AB0000F900F90ECCF99279C01265A3E4B0B9735
:100AC000880F991F880F991F280F391FF894C09815
:100AD00088E18FB9779BFECF832F99278FB9779BBA
:100AE000FECF2FB9779BFECFC09A78940895F894E3
:100AF000C0981FB8779BFECF8FB1C09A789486FFBD
:100B0000F6CF08958091CC0799270895CF93DF936E
:100B1000DC01C09889EC8FB9779BFECF80E88FB954
:100B2000779BFECF92E09150FD01E90FF11D80818E
:100B30008FB9779BFECF9923B1F7C09AC0988BEC01
:100B40008FB9779BFECF80E88FB9779BFECF92E07D
:100B50009D012E5F3F4FE9019150F901E90FF11D11
:100B600080818FB9779BFECF9923A9F7C09A8C918A
:100B70008093CD07FD0181818093CE07888180938A
:100B8000CF0783818093D007DF91CF910895C098DC
:100B900089E18FB9779BFECF83E08FB9779BFECF3A
:100BA00086E08FB9779BFECFC09AC0988AE18FB953
:100BB000779BFECF8EE08FB9779BFECF8EE08FB90B
:100BC000779BFECFC09A81E08093BD070895C098BF
:100BD00089E18FB9779BFECF81E08FB9779BFECFFC
:100BE00084EC8FB9779BFECFC09A1092BD07089511
:100BF0008091BB079091BC070895282F33272F7150
:100C00003070206E306AC09885E18FB9779BFECF37
:100C1000832F99278FB9779BFECF2FB9779BFECF74
:100C2000C09A08952091BE073091BF073860309375
:100C3000BF072093BE07C09881E18FB9779BFECF95
:100C4000832F99278FB9779BFECF2FB9779BFECF44
:100C5000C09A08952091BE073091BF07377F309327
:100C6000BF072093BE07C09881E18FB9779BFECF65
:100C7000832F99278FB9779BFECF2FB9779BFECF14
:100C8000C09A089581E08093CB072091BE073091F0
:100C9000BF0720613093BF072093BE07C09881E152
:100CA0008FB9779BFECF832F99278FB9779BFECF84
:100CB0002FB9779BFECFC09A08951092CB07209151
:100CC000BE073091BF072F7E3093BF072093BE072A
:100CD000C09881E18FB9779BFECF832F99278FB979
:100CE000779BFECF2FB9779BFECFC09A089581E006
:100CF0008093C807C09883E08FB9779BFECFC09AD6
:100D0000C09888E08FB9779BFECFC09A1092D10728
:100D1000089581E08093C807C09883E08FB9779BDE
:100D2000FECFC09AC09888E08FB9779BFECFC09A5B
:100D30001092D10708951092C807C09886E08FB925
:100D4000779BFECFC09A1092D107089580B3992760
:100D500074E0969587957A95E1F781709070089583
:100D600081B19927E6E096958795EA95E1F781703C
:100D70009070089580B39927F4E096958795FA9539
:100D8000E1F7817090700895CF93DF93CDB7DEB710
:100D900024970FB6F894DEBF0FBECDBF0E9903C0E7
:100DA00080E090E0E0C11092CC070E9B1BC0B79989
:100DB00019C0C0988FE78FB9779BFECF1FB8779B7C
:100DC000FECF8FB1C09AC09888E08FB9779BFECFD5
:100DD000C09AC09888E08FB9779BFECFC09A8FEFFA
:100DE0009FEFC1C1C0988FE78FB9779BFECF1FB827
:100DF000779BFECF4FB1C09A4F77C9F4C0988FE769
:100E00008FB9779BFECF1FB8779BFECF8FB1C09A6B
:100E1000C09888E08FB9779BFECFC09AC09888E0D1
:100E20008FB9779BFECFC09A8EEF9FEF9CC14C305D
:100E30008CF0E091C007F091C107242F332727FDE4
:100E400030952B5030408481992787FD90958217EB
:100E5000930794F5C0988FE78FB9779BFECF60E03A
:100E600070E0242F332727FD309505C01FB8779BEE
:100E7000FECF6F5F7F4F862F99278217930714F459
:100E8000B799F4CFC09AC0988FE78FB9779BFECF00
:100E90001FB8779BFECF8FB1C09AC09888E08FB9FA
:100EA000779BFECFC09AC09888E08FB9779BFECF22
:100EB000C09A8DEF9FEF57C1E091C007F091C10735
:100EC0004C504383C0988FE78FB9779BFECFFE01CC
:100ED00031969E012D5F3F4F1FB8779BFECF8FB19C
:100EE0008193E217F307C1F7C09AE091C007F09130
:100EF000C10789819A81A5E096958795AA95E1F722
:100F000081708783C0988FE78FB9779BFECF1FB81A
:100F1000779BFECFE091C007F091C1078FB180832E
:100F2000C09AC0988FE78FB9779BFECF80E006C04C
:100F30001FB8779BFECF8F5F843011F0B799F8CF41
:100F4000C09AC0988FE78FB9779BFECF20E030E042
:100F50001FB8779BFECFE091C007F091C107E20F69
:100F6000F31F8FB181832F5F3F4F2230310581F70F
:100F7000C09A89819A8183FF4DC0C0988FE78FB94D
:100F8000779BFECFE7EBF7E01FB8779BFECF8FB1E3
:100F9000819387E0EB3BF807B9F7C09AC09889E9DD
:100FA0008FB9779BFECF80E88FB9779BFECF92E019
:100FB0009150E92FFF27E954F84F80818FB9779B33
:100FC000FECF9923A9F7C09AC0988BE98FB9779B78
:100FD000FECF80E88FB9779BFECF92E09150E92F4A
:100FE000FF27E754F84F80818FB9779BFECF992375
:100FF000A9F7C09AC0988CE08FB9779BFECFC09AB2
:1010000081E08093CC07E091C007F091C107838114
:1010100084508383C0988FE78FB9779BFECF40E0E1
:1010200050E010C01FB8779BFECFE091C007F09151
:10103000C1070580F681E02DE60FF11D8FB1808399
:101040004F5F5F4F642FE091C007F091C107242FDD
:1010500033278381992787FD90952817390714F343
:10106000C09AC0988FE78FB9779909C0FDCF779B59
:10107000FECF5FB1C09AC0988FE78FB902C01FB88A
:10108000F6CF779BFECFFE0133969E012B5F3F4F3D
:101090001FB8779BFECF8FB18193E217F307C1F79B
:1010A000C09AE091C007F091C1078B81808740E032
:1010B00020E030E00AC0E091C007F091C1078581CF
:1010C0009681A80FB91F8C91480F822FE091C0071D
:1010D000F091C1072F5F3F4FA82FBB27838199272E
:1010E00087FD9095A817B90734F34517C9F0C09844
:1010F0008FE78FB9779BFECF1FB8779BFECF8FB15D
:10110000C09AC09888E08FB9779BFECFC09AC098EC
:1011100088E08FB9779BFECFC09A8CEF9FEF23C0FA
:101120008C8187FF08C08091D1078F5F8093D107A2
:1011300081E090E018C0C0988FE78FB9779BFECF11
:101140001FB8779BFECF8FB1C09AC09888E08FB947
:10115000779BFECFC09AC09888E08FB9779BFECF6F
:10116000C09A8BEF9FEF24960FB6F894DEBF0FBEA8
:10117000CDBFDF91CF9108958091D107882319F4D5
:1011800080E090E008958091D1071092D1079927CF
:1011900087FD90950895C09888E08FB9779BFECF22
:1011A000C09AC09888E08FB9779BFECFC09A089507
:1011B000992787FD9095382F22272068C09883E1D2
:1011C0008FB9779BFECF832F99278FB9779BFECF5F
:1011D0002FB9779BFECFC09A0895C09886E08FB94B
:1011E000779BFECFC09AC09882E18FB9779BFECFE4
:1011F00085E08FB9779BFECF88E08FB9779BFECFD4
:10120000C09AC0988EE28FB9779BFECF88E18FB9E4
:10121000779BFECF1FB8779BFECFC09A0E94CB086A
:101220000895C09886E08FB9779BFECFC09AC0988A
:1012300082E18FB9779BFECF85E08FB9779BFECF98
:101240001FB8779BFECFC09AC0988EE28FB9779B6C
:10125000FECF1FB8779BFECF1FB8779BFECFC09AFB
:101260000E94CB080895C09884E08FB9779BFECF89
:10127000C09A0895C09886E08FB9779BFECFC09A38
:101280000895EF92FF920F931F93CF93DF93CDB703
:10129000DEB722970FB6F894DEBF0FBECDBFDC01DC
:1012A0005091BD07552331F0C0988DE08FB9779BE1
:1012B000FECFC09AFD014281642F772767FD7095AC
:1012C00010E020E030E008C0FD0183819481E80E49
:1012D000F91EF7018081180F822F2F5F3F4FE82EF4
:1012E000FF24E616F70684F3942F945F51119C5F58
:1012F0000E99FECF8499FCCFF894C09889E08FB9FD
:10130000779BFECFC09AC09889E08FB9779BFECFBC
:10131000C09AC0988EE38FB9779904C0FDCF7799B2
:1013200010C1FDCF9FB9FBCF81E698E89A838983EE
:10133000552329F089819A8188609A838983C0988E
:101340008EE38FB9779BFECFFE0131969E012D5F14
:101350003F4F80818FB9779BFECF3196E217F3071D
:10136000C1F7C09AC0988EE38FB9779904C0FDCFBA
:101370007799F2C0FDCF8091C2078FB9F9CF779BE3
:10138000FECF20E030E0F901EC53F84F80818FB9B7
:10139000779BFECF2F5F3F4F22303105A1F7C09AD8
:1013A000C0988EE38FB9779BFECF20E030E0FD013F
:1013B000E20FF31F80818FB9779BFECF2F5F3F4FE6
:1013C00022303105A1F7C09AC0988EE38FB9779B80
:1013D000FECF20E030E0F901EA53F84F80818FB969
:1013E000779BFECF2F5F3F4F22303105A1F7C09A88
:1013F000552389F0C0988EE38FB9779BFECFEDEC33
:10140000F7E080818FB9779BFECF319687E0E13D91
:10141000F807B9F7C09AC0988EE38FB9779BFECFD3
:1014200020E030E00CC0FD0183819481480F591FFA
:10143000FA0180818FB9779BFECF2F5F3F4F422FFC
:101440005527461757077CF3C09AC0988EE38FB98B
:10145000779904C0FDCF779984C0FDCF1FB9FBCF2A
:101460008091C807882331F4C09883E08FB9779BB7
:10147000FECFC09AC0981FB8779BFECF8FB1C09A9D
:1014800081FFF8CF00E0C09885E08FB9779BFECF51
:10149000C09AC0981FB8779BFECF1FB1C09A0F5F4C
:1014A000053651F478948091BB079091BC070E9457
:1014B000271A80E090E05CC084E690E00E94AA12C7
:1014C00013FD07C0E0CFC09884E08FB9779BFECFB3
:1014D000C09A7894849BFECF8499FECF8091CB07ED
:1014E000882381F084EA92E00E94AA12B79B0CC084
:1014F000C0988FE78FB9779BFECF1FB8779BFECF41
:101500008FB1C09A91E00DC0C09888E08FB9779BE9
:10151000FECFC09AC09888E08FB9779BFECFC09A63
:1015200090E0F894C09886E08FB9779BFECFC09A80
:1015300078948091C2078F5F8093C207892F992783
:1015400017C0C09A81E498E89A8389838091CB0779
:10155000882309F0E9CEECCEC09AC0988EE38FB90B
:101560000ECFC09AFD018581882309F079CFABCFDA
:1015700022960FB6F894DEBF0FBECDBFDF91CF919C
:101580001F910F91FF90EF900895BF92CF92DF923D
:10159000EF92FF920F931F93CF93DF93CDB7DEB7F8
:1015A00022970FB6F894DEBF0FBECDBF8C016B0142
:1015B0007A010E949A26C09888E08FB9779BFECF67
:1015C000C09AC09888E08FB9779BFECFC09A0E99D9
:1015D000FECF8499FCCFF894C09889E08FB9779BAF
:1015E000FECFC09AC09889E08FB9779BFECFC09A92
:1015F000F8016281462F552747FD5095BB2420E016
:1016000030E007C0F80183819481A80FB91F8C9145
:10161000B80E822F2F5F3F4FA82FBB27A417B50707
:101620008CF3962F945FC0988EE38FB9779904C09E
:10163000FDCF7799F8C0FDCF9FB9FBCF81E698E841
:101640009A838983C0988EE38FB9779BFECFFE0182
:1016500031969E012D5F3F4F80818FB9779BFECFE2
:101660003196E217F307C1F7C09AC0988EE38FB99D
:10167000779904C0FDCF7799DFC0FDCF8091C20775
:101680008FB9F9CF779BFECF20E030E0F901EC5322
:10169000F84F80818FB9779BFECF2F5F3F4F22306D
:1016A0003105A1F7C09AC0988EE38FB9779BFECF22
:1016B00020E030E0F801E20FF31F80818FB9779BC3
:1016C000FECF2F5F3F4F22303105A1F7C09AC0985F
:1016D0008EE38FB9779BFECF20E030E0F901EA532B
:1016E000F84F80818FB9779BFECF2F5F3F4F22301D
:1016F0003105A1F7C09AB701C6010E947C27F80105
:1017000085818823A1F18091C807882331F4C0988E
:1017100083E08FB9779BFECFC09AC0981FB8779BA4
:10172000FECF8FB1C09A81FFF8CFEE24C09885E03C
:101730008FB9779BFECFC09AC0981FB8779BFECF1A
:10174000FFB0C09AE394F5E6EF1651F478948091D7
:10175000BB079091BC070E94271A80E090E073C0FD
:1017600084E690E00E94AA12F3FC07C0DFCFC09885
:1017700084E08FB9779BFECFC09AC0988EE38FB973
:10178000779BFECFF8018281482F552747FD509562
:1017900020E030E00BC0F80183819481A80FB91FCD
:1017A0008C918FB9779BFECF2F5F3F4FA22FBB2726
:1017B000A417B50784F3C09AC0988EE38FB97799C0
:1017C00004C0FDCF77993DC0FDCFBFB8FBCF849B50
:1017D000FECFF8948499FECFC09888E08FB9779BAC
:1017E000FECFC09AC09888E08FB9779BFECFC09A91
:1017F000C09889E08FB9779BFECFC09AC09889E0E6
:101800008FB9779BFECFC09AC09886E08FB9779B3F
:10181000FECFC09A78948091C2078F5F8093C207F1
:1018200081E090E010C0C09AF8018681882309F019
:1018300005CF81E498E804CFC09AC0988EE38FB9B1
:1018400021CFC09AC4CF22960FB6F894DEBF0FBE48
:10185000CDBFDF91CF911F910F91FF90EF90DF905F
:10186000CF90BF900895CF93DF93CDB7DEB7229787
:101870000FB6F894DEBF0FBECDBF9A8389839093D5
:10188000C7078093C60784EF91E00E944F26C09857
:101890008AEE8FB9779BFECF80E88FB9779BFECF1A
:1018A000FE0131969E012D5F3F4F80818FB9779B5E
:1018B000FECF3196E217F307C1F7C09A84EF91E0AB
:1018C0000E944F2622960FB6F894DEBF0FBECDBF02
:1018D000DF91CF9108956F927F928F929F92AF92F6
:1018E000BF92CF92DF92EF92FF920F931F93CF930D
:1018F000DF93CDB7DEB722970FB6F894DEBF0FBEE9
:10190000CDBF8C0184E690E00E944F267801C12C67
:10191000B1E0DB2E3E010894611C711CA3E08A2E0D
:10192000912C8C0E9D1EF7018081218133279927F0
:10193000982F8827282B392B3A83298384E690E037
:101940000E944F26C0988C2D80688FB9779BFECF60
:10195000C60195958795807C8FB9779BFECF8301D3
:101960005301F50180818FB9779BFECF0894A11CAC
:10197000B11CA814B904A9F7C09A0894E11CF11C81
:1019800082E090E0C80ED91E90E1C91691E0D90618
:1019900051F684E690E00E944F2620E131E040E4D9
:1019A00051E01A821982C098842F80688FB9779B82
:1019B000FECFCA0195958795807C8FB9779BFECF26
:1019C000F80180818FB9779BFECF3196EA15FB0530
:1019D000C1F7C09AC098822F80688FB9779BFECFDD
:1019E000C90195958795807C8FB9779BFECFF801CB
:1019F00080818FB9779BFECF3196EA15FB05C1F741
:101A0000C09A2E5F3F4F4E5F5F4FE1E02E313E07A1
:101A100041F681E090E09A838983C0988EEC8FB97B
:101A2000779BFECF80E88FB9779BFECFF80180814E
:101A30008FB9779BFECF3196EA15FB05C1F7C09AA7
:101A4000C0988EE98FB9779BFECF80E88FB9779BDE
:101A5000FECFF80180818FB9779BFECF0F5F1F4FBC
:101A60000A151B05B1F7C09A22960FB6F894DEBF8F
:101A70000FBECDBFDF91CF911F910F91FF90EF90DF
:101A8000DF90CF90BF90AF909F908F907F906F909E
:101A90000895CF93DF93EC01C09888E08FB9779BCE
:101AA000FECFC09AC09888E08FB9779BFECFC09ACE
:101AB000862F0E945B05D093C107C093C007DF91BA
:101AC000CF9108950E945B050895DF92EF92FF92F7
:101AD0000F931F93CF93DF93CDB7DEB722970FB647
:101AE000F894DEBF0FBECDBF8C01D62E5A8349833A
:101AF0007901DD9A88EE93E00E94AA12DE9881E0D7
:101B000090E00E94AA12DE9A84E690E00E94AA1257
:101B1000F894C09881E08FB9779BFECFC09A82EE8F
:101B200092E09093BF078093BE07C09881E18FB980
:101B3000779BFECF82E08FB9779BFECF82EE8FB985
:101B4000779BFECFC09AC09882E18FB9779BFECF7A
:101B500085E08FB9779BFECF1FB8779BFECFC09AE9
:101B6000C0988CE18FB9779BFECF1FB8779BFECFD3
:101B70008FE78FB9779BFECFC09AC09889E18FB964
:101B8000779BFECF81E08FB9779BFECF84EC8FB936
:101B9000779BFECFC09AC09887E18FB9779BFECF25
:101BA0008AE18FB9779BFECF86E58FB9779BFECF11
:101BB000C09A84EF91E00E944F26C09888EE8FB9BA
:101BC000779BFECF80E88FB9779BFECFFE013196E1
:101BD0009E012D5F3F4F80818FB9779BFECF31965D
:101BE000E217F307C1F7C09A84EF91E00E944F26F5
:101BF00078948D2D0E945B0578941093C107009313
:101C0000C00789819A819093C5078093C407F09299
:101C1000C707E092C6071092C2071092C8070E9439
:101C200077051092CB071092BD071092CC07229631
:101C30000FB6F894DEBF0FBECDBFDF91CF911F91DD
:101C40000F91FF90EF90DF9008958FEF9FEF089531
:101C5000882349F48BB1992787FD90958827990FA0
:101C6000881F99270895813019F080E090E0089549
:101C700080919B00992787FD90958827990F881F51
:101C8000992708955F9BFECF5F988CB1992708959F
:101C900080B5846080BD87E087BB88BB82E082B965
:101CA00087E68ABB80E48BBB80E58DB981E08EB985
:101CB00008958F3F09F481C0482F55279A01277056
:101CC000307022303105A9F12330310544F421155B
:101CD000310589F02130310509F06FC01CC0243076
:101CE000310509F446C0243031059CF12530310519
:101CF00009F063C04EC02BB3B3E056954795BA9533
:101D0000E1F781E090E002C0880F991F4A95E2F761
:101D1000282B2BBB4FC088B3A3E056954795AA95B7
:101D2000E1F702C0220F331F4A95E2F7822B88BBEE
:101D300041C025B3F3E056954795FA95E1F781E068
:101D400090E002C0880F991F4A95E2F7282B25BB27
:101D500031C022B3E3E056954795EA95E1F781E07B
:101D600090E002C0880F991F4A95E2F7282B22BB0A
:101D700021C023B173E0569547957A95E1F781E04C
:101D800090E002C0880F991F4A95E2F7282B23B9EB
:101D900011C02091620063E0569547956A95E1F77E
:101DA00081E090E002C0880F991F4A95E2F7282B46
:101DB0002093620081E090E008958FEF9FEF0895F7
:101DC0008F3F09F488C0482F55279A01277030703B
:101DD00022303105C1F12330310544F4211531059C
:101DE00089F02130310509F076C01DC0243031055D
:101DF00009F44BC024303105BCF12530310509F020
:101E00006AC054C02BB3E3E056954795EA95E1F7D5
:101E100081E090E002C0880F991F4A95E2F7809513
:101E200082238BBB55C098B373E0569547957A953E
:101E3000E1F702C0220F331F4A95E2F7822F809507
:101E4000892388BB45C025B363E0569547956A95BD
:101E5000E1F781E090E002C0880F991F4A95E2F710
:101E60008095822385BB34C022B333E056954795D5
:101E70003A95E1F781E090E002C0880F991F4A95FA
:101E8000E2F78095822382BB23C023B193E056956D
:101E900047959A95E1F781E090E002C0880F991F7D
:101EA0004A95E2F78095822383B912C0209162009F
:101EB00083E0569547958A95E1F781E090E002C06E
:101EC000880F991F4A95E2F78095822380936200DC
:101ED00081E090E008958FEF9FEF08958F3FA9F183
:101EE000282F3327C9018770907082309105A9F09F
:101EF000833091052CF4009761F0019731F50BC008
:101F00008430910571F0843091054CF00597E9F427
:101F10000AC089B309C086B307C083B305C080B3C4
:101F200003C081B101C080B19927F3E036952795B0
:101F3000FA95E1F702C0959587952A95E2F79927DA
:101F400087FD90958170907008958FEF9FEF0895B1
:101F5000882319F080B58B7F02C080B5846080BD76
:101F600081E090E008958F3F09F407C1282F3327BF
:101F7000A901477050704230510509F45CC04330EC
:101F8000510544F44115510591F04130510509F0D6
:101F9000F4C034C04430510509F49BC044305105AD
:101FA0000CF470C04530510509F0E7C0B9C089B3E1
:101FB000A90173E0569547957A95E1F79927042E84
:101FC00002C0959587950A94E2F780FD0BC02BB36C
:101FD00081E090E002C0880F991F4A95E2F7282B14
:101FE0002BBBC8C02BB381E090E002C0880F991FC3
:101FF0004A95E2F7809582238BBBBCC086B363E031
:10200000369527956A95E1F79927022E02C0959596
:1020100087950A94E2F702C0440F551F2A95E2F70C
:1020200080FD03C088B3842B04C098B3842F8095AF
:10203000892388BB9FC083B3A90123E056954795A8
:102040002A95E1F79927042E02C0959587950A9461
:10205000E2F780FD0BC025B381E090E002C0880F5D
:10206000991F4A95E2F7282B25BB84C025B381E050
:1020700090E002C0880F991F4A95E2F7809582236D
:1020800085BB78C080B3A90193E0569547959A9592
:10209000E1F79927042E02C0959587950A94E2F7F7
:1020A00080FD0BC022B381E090E002C0880F991F31
:1020B0004A95E2F7282B22BB5DC022B381E090E075
:1020C00002C0880F991F4A95E2F78095822382BB50
:1020D00051C081B1A901B3E056954795BA95E1F792
:1020E0009927042E02C0959587950A94E2F780FD02
:1020F0000BC023B181E090E002C0880F991F4A9580
:10210000E2F7282B23B936C023B181E090E002C06A
:10211000880F991F4A95E2F78095822383B92AC0D8
:1021200080B1A901A3E056954795AA95E1F79927B3
:10213000042E02C0959587950A94E2F780FD0DC0A4
:102140002091620081E090E002C0880F991F4A95BB
:10215000E2F7282B209362000DC02091620081E0FD
:1021600090E002C0880F991F4A95E2F7809582237C
:102170008093620081E090E008958FEF9FEF0895D3
:102180008F3F09F421C1482F5527662309F09DC0D0
:10219000CA01877090708230910509F43EC0833087
:1021A00091053CF4009789F08130910509F00CC14C
:1021B00021C08430910509F45AC0843091050CF493
:1021C00041C0059709F000C167C03AB3B3E0569526
:1021D0004795BA95E1F781E090E002C0880F991F1A
:1021E0004A95E2F7282F209523232ABB2BB3822B75
:1021F0008BBBE7C027B3A3E056954795AA95E1F7B7
:1022000002C0880F991F4A95E2F7982F8095822384
:1022100087BB88B3982B98BBD4C034B3F3E05695F2
:102220004795FA95E1F781E090E002C0880F991F89
:102230004A95E2F7282F2095232324BB25B3822B30
:1022400085BBBFC031B3E3E056954795EA95E1F70A
:1022500081E090E002C0880F991F4A95E2F7282F8D
:102260002095232321BB22B3822B82BBAAC032B18B
:1022700073E0569547957A95E1F781E090E002C0CA
:10228000880F991F4A95E2F7282F2095232322B91A
:1022900023B1822B83B995C03091610063E05695DC
:1022A00047956A95E1F781E090E002C0880F991F99
:1022B0004A95E2F7282F209523232093610020914F
:1022C0006200822B809362007CC09A01277030707C
:1022D00022303105A9F12330310544F421153105AF
:1022E00089F02130310509F06FC01CC02430310560
:1022F00009F446C0243031059CF12530310509F040
:1023000063C04EC02AB333E0569547953A95E1F73E
:1023100081E090E002C0880F991F4A95E2F7282BD0
:102320002ABB4FC087B393E0569547959A95E1F73E
:1023300002C0220F331F4A95E2F7822B87BB41C0B0
:1023400024B3B3E056954795BA95E1F781E090E064
:1023500002C0880F991F4A95E2F7282B24BB31C091
:1023600021B3A3E056954795AA95E1F781E090E067
:1023700002C0880F991F4A95E2F7282B21BB21C084
:1023800022B1F3E056954795FA95E1F781E090E0A8
:1023900002C0880F991F4A95E2F7282B22B911C075
:1023A00020916100E3E056954795EA95E1F781E0D9
:1023B00090E002C0880F991F4A95E2F7282B2093DE
:1023C000610081E090E008958FEF9FEF08958FEF17
:1023D0009FEF0895009711F480E004C081309105CB
:1023E00031F488E00E94B30F81E090E008950297F5
:1023F00019F08FEF9FEF089580E10E94B30F81E005
:1024000090E00895009711F480E004C081309105B8
:1024100031F488E00E94590E81E090E0089502971F
:1024200019F08FEF9FEF089580E10E94590E81E02F
:1024300090E00895009711F480E004C08130910588
:1024400031F488E00E94E00E81E090E00895029768
:1024500019F08FEF9FEF089580E10E94E00E81E078
:1024600090E008955D9BFECF5D988CB90895982FFC
:1024700080919B0085FFFCCF80919B008F7D809396
:102480009B0090939C000895292F33272093900060
:1024900089B986E0809395005298599A8AB18861EB
:1024A0008AB90895292F33272093980080939900A3
:1024B00086E080939D00EAE9F0E080818B7F808355
:1024C000ABE9B0E08C9182608C93808188618083DD
:1024D000089580919B0087FFFCCF80919B008F77B0
:1024E00080939B0080919C0099270895EF92FF9222
:1024F0000F931F930E94441202E41EE042E3E42E75
:1025000042E1F42EB801C7010E94102A9093A2095B
:102510008093A109B801C7010E94102A9093A009D5
:1025200080939F091F910F91FF90EF900895CF9393
:10253000DF93EC0107C06091A1097091A20999276E
:102540000E945E2AFE01219684918823A1F7DF91E3
:10255000CF91089500000000000000000197D1F71E
:102560000895FC01A0E0B0E00E94052D402D4383BA
:10257000A1E0B0E00E94052D802D8283A2E0B0E0B2
:102580000E94052D302D3183A3E0B0E00E94052D7F
:10259000902D9083A4E0B0E00E94052D202D830FA4
:1025A000840F890F281719F481E090E008958FEFC8
:1025B0009FEF0895F89408957894089585E690E043
:1025C00008950E9497220895AF92BF92CF92DF9212
:1025D000EF92FF920F931F93CF93DF93EC016B0168
:1025E0005A018A85823021F080915909888301C07F
:1025F00018828A852881833009F04BC0822F992761
:1026000087FD909538E2E32EF12C8E9DF0018F9D91
:10261000F00D9E9DF00D1124EC52F84F81E087A340
:102620000881112707FD10952C893D894E895F8906
:10263000688D798D8A8D9B8D0E94B2200E9DF00150
:102640000F9DF00D1E9DF00D1124EC52F84F95A337
:1026500084A38881992787FD90958E9DF0018F9D99
:10266000F00D9E9DF00D1124EC52F84F84A195A120
:1026700093A382A38881992787FD90958E9DF00171
:102680008F9DF00D9E9DF00D1124EC52F84F16A277
:102690000FC0332727FD309588E290E0289FF00196
:1026A000299FF00D389FF00D1124EC52F84F17A21E
:1026B00080915909893020F060E087E00E947C1702
:1026C0008A85823029F0809159098F5F809359095A
:1026D00080915909882319F481E0809359098881F0
:1026E000992787FD909528E2E22EF12C8E9DF0012E
:1026F0008F9DF00D9E9DF00D1124EC52F84FD1826C
:10270000C0828881992787FD90958E9DF0018F9DCD
:10271000F00D9E9DF00D1124EC52F84F88858287B4
:102720008881992787FD90958E9DF0018F9DF00DF2
:102730009E9DF00D1124EC52F84F83E08187888133
:10274000992787FD90958E9DF0018F9DF00D9E9DA0
:10275000F00D1124EC52F84F898583872881822F50
:10276000992787FD90958E9DF0018F9DF00D9E9D80
:10277000F00D1124EC52F84F20878881992787FDAE
:1027800090958E9DF0018F9DF00D9E9DF00D112472
:10279000EC52F84F15820881112707FD10952C8502
:1027A0003D854E855F85688979898A899B890E94E4
:1027B000B2200E9DF0010F9DF00D1E9DF00D112415
:1027C000EC52F84F958F848F0881112707FD1095E3
:1027D0002C8D3D8D4E8D5F8D68A179A18AA19BA125
:1027E0000E94B2200E9DF0010F9DF00D1E9DF00D78
:1027F0001124EC52F84F978B868B8881992787FD9F
:1028000090958E9DF0018F9DF00D9E9DF00D1124F1
:10281000EC52F84F86899789248D358D820F931F4E
:10282000918F808F0881112707FD10952C893D8994
:102830004E895F89688D798D8A8D9B8D0E94B2202B
:102840000E9DF0010F9DF00D1E9DF00D1124EC5218
:10285000F84F978F868F8881992787FD90958E9D59
:10286000F0018F9DF00D9E9DF00D1124EC52F84F5C
:10287000868D978D938F828F8881992787FD90957C
:102880008E9DF0018F9DF00D9E9DF00D1124EC5258
:10289000F84F81E090E091A380A38881992787FD7C
:1028A00090958E9DF0018F9DF00D9E9DF00D112451
:1028B000EC52F84FB382A2828881992787FD9095C8
:1028C0008E9DF0018F9DF00D9E9DF00D1124EC5218
:1028D000F84F81E085878A85823079F4198688816E
:1028E000992787FD90958E9DF0018F9DF00D9E9DFF
:1028F000F00D1124EC52F84F13862881332727FD61
:102900003095898599279F938F932E9DF0012F9D58
:10291000F00D3E9DF00D1124EC52F84F8385992760
:102920009F938F933F932F9386E493E09F938F938E
:102930000E948B2A8DB79EB708960FB6F8949EBF5B
:102940000FBE8DBF81E090E0DF91CF911F910F917D
:10295000FF90EF90DF90CF90BF90AF9008958F924F
:102960009F92AF92BF92CF92DF92EF92FF920F931E
:102970001F93CF93DF934CEDA42E47E0B42ECC24CD
:10298000DD244501EC2CF501F080FFEFFF1691F0FE
:10299000E40100E010E0E01639F08881F81621F437
:1029A0006F2D85E00E947C170F5F1F4FA89609309E
:1029B000110589F70894C11CD11C88E290E0A80E8B
:1029C000B91E99E0C916D104E9F60E941C1C482FD3
:1029D000552747FD509528E230E0429FF001439F84
:1029E000F00D529FF00D1124EC52F84F32853093C8
:1029F0006C0928E28202C00111248C52984F9093F6
:102A00006B0980936A0990935C0980935B0930930A
:102A10005D090E9486280E9475280E94AA28FFCF7F
:102A20000F931F93CF93DF93CDB7DEB7A4970FB665
:102A3000F894DEBF0FBECDBF0E94E61880935A09FE
:102A40008F3F21F460E08EE00E947C170E94E32714
:102A5000882321F460E086E00E947C170E94EC2726
:102A60008F3F31F40E94F72760E080E10E947C17DD
:102A70000E94042810925D0910926B0910926A0955
:102A800010925C0910925B0910926C09109269090E
:102A9000EEE3F9E08FEF808382838183339629E030
:102AA000E935F207B9F7E4EDF7E083E682878FEFC7
:102AB0008087B89689E0EC33F807B9F7EDE6F9E0DE
:102AC000CF01059694838383F783E683FC0129E095
:102AD0008A399207A9F710926F0910926E09109225
:102AE0009E0910929D091092600910925F098D97BE
:102AF0009093D3078093D20763E772E28E010F5F52
:102B00001F4FC8010E94132840E850E063E177E0BE
:102B1000C8010E948B2885E58093130719861D8EB6
:102B20001E8E1F8E18A219A21AA21BA21CA291E02F
:102B3000988782E08B879C87C8010E943B1FA496E0
:102B40000FB6F894DEBF0FBECDBFDF91CF911F91BE
:102B50000F910895F894FFCFE0916A09F0916B0905
:102B600085870895E0916A09F0916B098585992719
:102B70000895DC01FB0180911207882319F480E09D
:102B800090E0089580838091E0058C9381E090E04F
:102B90000895CF93DF93CDB7DEB721970FB6F894A2
:102BA000DEBF0FBECDBF198207C080ED97E00E9447
:102BB0004F2689818F5F898389818436B0F321967E
:102BC0000FB6F894DEBF0FBECDBFDF91CF91089551
:102BD00081E090E00E941A120E94C91581E090E005
:102BE0000E9402120E94C915089581E090E00E949F
:102BF0001A120E94C9150E94C9150E94C91581E0C8
:102C000090E00E9402120E94C9150895EF92FF926F
:102C10000F931F93CF93DF93CDB7DEB723970FB6F4
:102C2000F894DEBF0FBECDBF99279F938F938CE79B
:102C300093E09F938F938E010F5F1F4F1F930F930E
:102C40000E94D52AEE24FF248DB79EB706960FB6B4
:102C5000F8949EBF0FBE8DBF73C0A00FB11F8C91A3
:102C60008433D1F1853370F48133F9F0823320F469
:102C7000803309F05CC016C0823311F1833309F050
:102C800056C023C08733C9F1883330F4853369F1E6
:102C9000863309F04CC02CC08833B1F1893309F078
:102CA00046C03BC00E94F51502C00E94E8150E9474
:102CB000F5150E94F5150E94F5150E94F51537C00F
:102CC0000E94E8150E94E815F4CF0E94E8150E94C2
:102CD000E8150E94E815EFCF0E94E8150E94E8155C
:102CE0000E94E8150E94E815E8CF0E94E81502C08E
:102CF0000E94F5150E94E81504C00E94F5150E9477
:102D0000F5150E94E81506C00E94F5150E94F515FC
:102D10000E94F5150E94E81508C00E94F5150E9452
:102D2000F5150E94F5150E94F5150E94E8150E9400
:102D3000C9150E94C9150E94C9150894E11CF11C0F
:102D4000AE2DBB27F80101900020E9F73197E01B79
:102D5000F10BAE17BF0708F480CF23960FB6F89497
:102D6000DEBF0FBECDBFDF91CF911F910F91FF90BE
:102D7000EF9008950F931F9380911207882309F411
:102D8000B6C00E94DA120E94F7270E94DA128CE67F
:102D900092E00E9497128091E00599279F938F936C
:102DA0008CE793E09F938F930E948B2A88E692E0B2
:102DB0000E9497120F900F900F900F908091120722
:102DC000843110F010921207809112079927AA27D8
:102DD000BB27FC013197E231F105F0F5EA5BFF4FCB
:102DE000EE0FFF1F0590F491E02D099481E492E02D
:102DF00035C08DE292E032C087E192E02FC08CEFC7
:102E000091E02CC086EE91E029C08EEC91E026C0C6
:102E10008BEB91E023C088EA91E020C08AE891E042
:102E20001DC085E691E01AC089E591E017C08EE3E8
:102E300091E014C08FE291E011C08EE191E00EC0EC
:102E40008AE091E00BC08AEE90E008C082ED90E04D
:102E500005C087EB90E002C080EB90E00E949712E3
:102E60006091A1097091A2098DE090E00E945E2A14
:102E70006091A1097091A2098AE090E00E945E2A07
:102E800000E021C082E090E00E941A1283E090E00E
:102E90000E94021210E088EE93E00E944F261F5F0E
:102EA0001436C9F783E090E00E941A1282E090E0A5
:102EB0000E94021210E088EE93E00E944F261F5FEE
:102EC0001436C9F70F5F0431ECF283E090E00E9402
:102ED000021282E090E00E9402128091E0050E94BE
:102EE0000616809112070E94061600E0CBCF80E004
:102EF00090E01F910F910895EF92FF920F931F930F
:102F0000E82EF62E809312076093E0050E94BA1611
:102F100000E021C082E090E00E941A1283E090E07D
:102F20000E94021210E088EE93E00E944F261F5F7D
:102F30001436C9F783E090E00E941A1282E090E014
:102F40000E94021210E088EE93E00E944F261F5F5D
:102F50001436C9F70F5F0431E8F283E090E00E9475
:102F6000021282E090E00E9402128F2D0E9406164B
:102F70008E2D0E94061600E0CDCF80931207E091BF
:102F80006A09F0916B0980858093E0050E94BA166A
:102F90000895992787FD909528E230E0829FF001FF
:102FA000839FF00D929FF00D1124EC52F84FA281F7
:102FB000B3818C91853529F085E58C938FEF9FEF58
:102FC0000895808191818050914118F481E090E0D2
:102FD000089582E10E94BD178FEF9FEF08956F92D1
:102FE0007F928F929F92AF92BF92CF92DF92EF9299
:102FF000FF920F931F93CF93DF9388E792E00E9495
:103000009712E0916A09F0916B098085992787FDF5
:1030100090959F938F938FE793E09F938F930E9458
:103020008B2AE0916A09F0916B09028113811F9349
:103030000F9388E893E09F938F930E948B2AF80167
:10304000808199279F938F9325E9C22E23E0D22E6A
:10305000DF92CF920E948B2AE0916A09F0916B096E
:10306000808191819F938F9392EAE92E93E0F92ECC
:10307000FF92EF920E948B2A80916A0990916B09CE
:103080009F938F930CEA13E01F930F930E948B2A58
:10309000C4EDD7E0AA24BB248DB79EB744960FB6E3
:1030A000F8949EBF0FBE8DBF8CEB682E83E0782E08
:1030B0004601670178010A811B811F930F93BF921C
:1030C000AF927F926F920E948B2AF801808199279C
:1030D0009F938F939F928F920E948B2A88819981D0
:1030E0009F938F93DF92CF920E948B2ADF93CF938F
:1030F000FF92EF920E948B2A0894A11CB11CA89603
:103100008DB79EB742960FB6F8949EBF0FBE8DBF87
:1031100099E0A916B10479F6DF91CF911F910F9133
:10312000FF90EF90DF90CF90BF90AF909F908F90E7
:103130007F906F900895CF93DF93E0916A09F091AB
:103140006B09C281D3818881853539F00E94EF17E0
:1031500081E00E94BD1785E58883E0916A09F091BE
:103160006B09808191818050914128F00E94EF1776
:1031700082E10E94BD17DF91CF910895EF92FF92F7
:103180000F931F93EEE3F9E0EE24FF2487013097BD
:1031900089F08281882371F48181282F332727FDCC
:1031A0003095432F532FE216F3060407150710F44A
:1031B00079018A01339689E0E935F80741F7C801BA
:1031C000B7011F910F91FF90EF90089540918A06EB
:1031D00050918B0660918C0670918D0620E030E056
:1031E000DB01CA01022E04C0B695A7959795879575
:1031F0000A94D2F781709070892BE9F481E090E015
:10320000A0E0B0E0022E04C0880F991FAA1FBB1FC8
:103210000A94D2F7842B952BA62BB72B80938A0682
:1032200090938B06A0938C06B0938D06822F9927DE
:1032300087FD909508952F5F3F4F2032310581F62D
:103240008FEF9FEF0895E0916A09F0916B09668511
:103250007785808991890895EF92FF920F931F934C
:1032600021E030E040E050E004C0220F331F441F53
:10327000551F8A95D2F7E0916A09F0916B09E684AF
:10328000F78400891189DA01C9018E219F21A023C9
:10329000B1230097A105B10519F48FEF9FEF1AC074
:1032A0002095309540955095E222F3220423152372
:1032B000E686F786008B118B82899389A489B5896C
:1032C00082239323A423B523828B938BA48BB58B6A
:1032D00081E090E01F910F91FF90EF900895682F8B
:1032E000772767FD709580918A0690918B06A09153
:1032F0008C06B0918D06062E04C0B695A7959795BD
:1033000087950A94D2F781709070892B19F48FEF0A
:103310009FEF0895E0916A09F0916B0921E030E098
:1033200040E050E004C0220F331F441F551F6A9530
:10333000D2F786859785A089B189822B932BA42B00
:10334000B52B86879787A08BB18B81E090E008959D
:10335000482F20916909283018F080E090E0089506
:10336000EEE3F9E030E080818F3F21F03F5F33965C
:103370003930C9F7832F9927FC01EE0FFF1FE80FA3
:10338000F91FE25CF64F4283408361832F5F2093F5
:10339000690983E0389FC0011124825C964F08952B
:1033A0004EE359E020E030E04817590729F4822F16
:1033B000992787FD909508952F5F3F4F4D5F5F4F91
:1033C0002930310589F78FEF9FEF08950E94D019BA
:1033D0008F3F11F481E003C0893031F482E00E9414
:1033E000AC158FEF9FEF0895992787FD9095FC010D
:1033F000EE0FFF1FE80FF91FE25CF64F8FEF80839F
:10340000828381838091690981508093690981E079
:1034100090E008950E94D0198F3F11F481E003C01D
:10342000893031F482E00E94AC158FEF9FEF089550
:10343000992787FD9095FC01EE0FFF1FE80FF91FFC
:10344000E25CF64F8281992787FD909508951F933E
:10345000CF93DF930E94D019182F8F3F11F481E092
:1034600003C0893031F482E00E94AC158FEF9FEFEA
:1034700048C0992787FD9095EC01CC0FDD1FC80F40
:10348000D91FC25CD64F9A8188819817C4F50E94D3
:10349000DA128A818F5F8A830E94BE1860930606C3
:1034A000709307068093080690930906E0916A09D5
:1034B000F0916B091482EBEDF7E0212F332727FD04
:1034C0003095432F532F8081823091F483859485EA
:1034D000A585B68582179307A407B50749F483E04D
:1034E0008283108A178610821386148615861686A4
:1034F000B89689E0E334F80731F70E94DC1281E0E6
:1035000090E0DF91CF911F910895DF92EF92FF92AB
:103510000F931F93F1E0EF2EF12C012D112D04C01C
:10352000EE0CFF1C001F111F8A95D2F780918A06AE
:1035300090918B06A0918C06B0918D068E219F21D3
:10354000A023B1230097A105B10511F481E043C088
:103550000E94DA12EBEDF7E0DD2480818130B9F4CE
:1035600083859485A585B6858E219F21A023B123CF
:103570000097A105B10559F083E08283108A178670
:103580001082E386F48605871687DD24D394808134
:103590008230A1F483859485A585B6858E159F0517
:1035A000A007B10759F483E08283108A178610823E
:1035B0001386148615861686DD24D394B89689E082
:1035C000E334F80751F60E94DC12DD2019F081E0A7
:1035D00090E005C082E00E94AC158FEF9FEF1F9135
:1035E0000F91FF90EF90DF900895EF92FF920F936D
:1035F0001F93CF93DF93C82FDD27C7FDD095A1E0A0
:10360000EA2EF12C012D112D0C2E04C0EE0CFF1C06
:10361000001F111F0A94D2F780918A0690918B06A1
:10362000A0918C06B0918D068E219F21A023B123FD
:103630000097A105B10519F48FEF9FEF5DC00E94BF
:10364000DA12E4EDF7E0A801970120953095409556
:10365000509580858F3F41F186859785A089B189F6
:103660008E159F05A007B10739F4128A138A148AB0
:10367000158A178283E0818786859785A089B1891D
:1036800082239323A423B52386879787A08BB18BAE
:1036900082899389A489B58982239323A423B5239E
:1036A000828B938BA48BB58BB89689E0EC33F807AB
:1036B00081F62EEF3FEF4FEF5FEF04C0220F331F75
:1036C000441F551FCA95D2F780918A0690918B06A8
:1036D000A0918C06B0918D0682239323A423B52359
:1036E00080938A0690938B06A0938C06B0938D06E8
:1036F0000E94DC1281E090E0DF91CF911F910F9149
:10370000FF90EF9008951F93CF93DF930E94D019FD
:10371000182F8F3F11F481E003C0893031F482E02B
:103720000E94AC158FEF9FEF48C00E94DA12812FE4
:10373000992787FD9095EC01CC0FDD1FC80FD91F8D
:10374000C25CD64F8A818823D9F4E0916A09F0914E
:103750006B09878182608783E0916A09F0916B0928
:10376000812F992787FD9095A92FB92F828B938B55
:10377000A48BB58B0E94DC1280E090E00E94A01D1B
:103780008A8181508A830E94BE18609306067093D6
:1037900007068093080690930906E0916A09F09164
:1037A0006B0989818487E0916A09F0916B0981E056
:1037B00084830E94DC1281E090E0DF91CF911F9121
:1037C00008959B01AC01E0916A09F0916B0986852F
:1037D0009785A089B18982239323A423B5230097D9
:1037E000A105B10529F460E070E080E090E0089563
:1037F000228B338B448B558B81E0878300905A0951
:1038000004C056954795379527950A94D2F7C90174
:1038100081709070892B19F00E943B1D04C080E0DC
:1038200090E00E94A01DE0916A09F0916B09628905
:103830007389848995890895E0915F09F091600901
:10384000808199270895CF93DF93A0915F09B0916C
:103850006009109709F446C0482F552747FD509539
:103860008C9199278417950769F4ED01EB81FC8110
:10387000F0936009E0935F091282118216C0D901AA
:10388000232B81F18C919927FD01238134818417A9
:103890009507A9F7C181D2813C832B8383819481D1
:1038A000009719F0FC01D283C183E091D207F09117
:1038B000D307309741F4B093D307A093D207ED011B
:1038C0001C821B8209C0ED01FC83EB83B283A183C0
:1038D000B093D307A093D207E091D207F091D3071A
:1038E00012821182DF91CF910895E0916A09F091DF
:1038F0006B098085992708950E942328E0916A0921
:10390000F0916B0985818823B9F70895FF920F9391
:103910001F93CF93DF93CDB7DEB728970FB6F894F8
:10392000DEBF0FBECDBF29833A834B835C836D839B
:103930007E838F8398870E949B180E94DA12E09101
:103940006A09F0916B0981E0858381E090E091A3A1
:1039500080A30E949A26F82E29813A814B815C81AE
:103960006D817E818F8198850E94B220E0916A09E5
:10397000F0916B090F2D1127800F911F978B868B6C
:1039800087EF8F1570F00E9493260E5F1F4F9927C7
:103990008017910734F08F2D8E5F809311070E945E
:1039A00097260E94DC120E947C1C81E090E0289601
:1039B0000FB6F894DEBF0FBECDBFDF91CF911F9140
:1039C0000F91FF9008958F929F92AF92BF92CF92E6
:1039D000DF92EF92FF920F931F93CF93DF93CDB7B8
:1039E000DEB760970FB6F894DEBF0FBECDBF298754
:1039F0003A874B875C876D877E878F87988BCE0150
:103A000001960E94182289809A80AB80BC80CD806C
:103A1000DE80EF80F88409851A852B853C854D85ED
:103A20005E856F857889CE0109960E94931F882351
:103A300019F48FEF9FEF0CC029853A854B855C8583
:103A40006D857E858F8598890E94861C81E090E037
:103A500060960FB6F894DEBF0FBECDBFDF91CF9159
:103A60001F910F91FF90EF90DF90CF90BF90AF909C
:103A70009F908F9008951F930E94DA12E0916A0937
:103A8000F0916B0981E0858386830E949A26182F26
:103A9000883F80F40E949326212F33272E5F3F4FCB
:103AA00099278217930734F0812F8E5F8093110737
:103AB0000E9497260E94DC120E947C1C81E090E00C
:103AC0001F9108951F93CF93DF93CDB7DEB728974B
:103AD0000FB6F894DEBF0FBECDBF29833A834B8368
:103AE0005C836D837E838F8398870E94DA120E94A5
:103AF0009A26182F29813A814B815C816D817E81C4
:103B00008F8198850E94B2208330910518F48FEF41
:103B10009FEF0CC0E0916A09F0916B09810F911D34
:103B2000978B868B0E94DC1281E090E028960FB67E
:103B3000F894DEBF0FBECDBFDF91CF911F910895E6
:103B40000F931F938C010E94DA12E0916A09F091A1
:103B50006B0981E08583178B068B0E949A26082FBC
:103B6000883F80F40E949326202F33272E5F3F4FFB
:103B700099278217930734F0802F8E5F8093110767
:103B80000E9497260E94DC120E947C1C81E090E03B
:103B90001F910F910895FF920F931F93CF93DF937F
:103BA0008C010E94DA12E0916A09F0916B0981E0C0
:103BB00085830E949A26F82EE0916A09F0916B099C
:103BC000C82FDD270C0F1D1F178B068B87EF8F1556
:103BD00068F00E949326229699278C179D0734F04F
:103BE0008F2D8E5F809311070E9497260E94DC1212
:103BF0000E947C1C81E090E0DF91CF911F910F919A
:103C0000FF9008951F93CF93DF93EC010E949B18C0
:103C1000209711F4C1E0D0E00E94DA12E0916A0925
:103C2000F0916B0981E08583D1A3C0A30E949A26FD
:103C3000182F883F80F40E949326212F33272E5F70
:103C40003F4F99278217930734F0812F8E5F80931F
:103C500011070E9497260E94DC120E947C1C81E0C2
:103C600090E0DF91CF911F9108951F930E949B18C0
:103C70000E94DA12E0916A09F0916B0981E090E00C
:103C800091A380A381E085830E949A26182F883F04
:103C900080F40E949326212F33272E5F3F4F9927D0
:103CA0008217930734F0812F8E5F809311070E9453
:103CB00097260E94DC120E947C1C81E090E01F91FC
:103CC0000895E0916A09F0916B0980850E94231C98
:103CD000E0916A09F0916B0984E081870E94351EAA
:103CE00081E090E00895EF92FF920F931F93CF939E
:103CF000DF938DEC93E00E94A22AC0915F09D091DE
:103D0000600988E0E82E84E0F82E05E114E028C080
:103D1000888199279F938F93FF92EF920E948B2A1D
:103D20008881992728E230E0829FF001839FF00D7F
:103D3000929FF00D1124EC52F84F808D918D9F933E
:103D40008F931F930F930E948B2A0B80DC81C02DD1
:103D50008DB79EB708960FB6F8949EBF0FBE8DBF65
:103D60002097B1F687E294E00E94A22ADF91CF91DA
:103D70001F910F91FF90EF9008951F93CF93DF93C2
:103D8000182FC091D207D091D307209709F46FC0A4
:103D9000A0915F09B09160091097C9F429C09927D3
:103DA000869FF001879FF00D969FF00D1124EC5235
:103DB000F84F208D318DFA01808D918D82179307F8
:103DC000B8F0FD01A381B481109791F00EC068E2B4
:103DD00070E0992787FD9095869FA001879F500DE1
:103DE000969F500D11244C52584F8C918823B9F650
:103DF0001883E091D207F091D30723813481309367
:103E0000D3072093D20780915F0990916009A8178A
:103E1000B907A1F4109731F0BC83AB831A821982E1
:103E2000FD0105C01C821B821A821982F901D2830E
:103E3000C183D0936009C0935F0917C0FD018181E0
:103E40009281A217B30751F09A838983BC83AB8315
:103E500081819281FC01D483C38304C01C821B82B4
:103E60009A838983FD01D283C1830E94731EDF91EF
:103E7000CF911F910895EF92FF920F931F93CF93CD
:103E8000DF93EC014B815C8169817A818D819E8118
:103E90000E942E28BC018F81882369F04B815C81B0
:103EA000EE24FF2400E010E020E030E0CE010E948C
:103EB000E4121F8217C08881992787FD909528E218
:103EC00030E0829FF001839FF00D929FF00D11244E
:103ED000EC52F84F8185833019F08FEF9FEF1CC0B3
:103EE000718360838881992787FD909528E230E06F
:103EF000829FF001839FF00D929FF00D1124EC52F0
:103F0000F84F86899789892B29F482E081878881F7
:103F10000E94BD1E81E090E0DF91CF911F910F9133
:103F2000FF90EF9008958F929F92AF92BF92CF92A1
:103F3000DF92EF92FF920F931F93CF93DF93CDB752
:103F4000DEB760970FB6F894DEBF0FBECDBFFC01A1
:103F500009831A832B833C834D835E836F83788729
:103F600089869A86AB86BC86CD86DE86EF86F88A01
:103F70002D813E814F81588589819A81AB81BC8199
:103F8000AD84BE84CF84D888E984FA840B851C85EF
:103F90008E159F05A007B10708F43FC0E816F90683
:103FA0000A071B0791F42A153B054C055D05A8F18E
:103FB0002A193B094C095D092483358346835783BD
:103FC00010821182128213821CC02A153B054C05F7
:103FD0005D05D0F40197A109B1098E199F09A00BC5
:103FE000B10B80839183A283B3832050364345462F
:103FF000544C2A193B094C095D09248335834683B7
:10400000578381E090E00BC08E199F09A00BB10B84
:1040100080839183A283B383ECCF80E090E06096AD
:104020000FB6F894DEBF0FBECDBFDF91CF911F91C9
:104030000F91FF90EF90DF90CF90BF90AF909F9047
:104040008F900895FC0113C080509A4CAA49BB433D
:1040500084839583A683B78380819181A281B38174
:104060000196A11DB11D80839183A283B3838481B6
:104070009581A681B78180302AEC92072AE9A207B0
:104080002BE3B20708F708958F929F92AF92BF92E9
:10409000CF92DF92EF92FF920F931F93CF93DF9314
:1040A000CDB7DEB760970FB6F894DEBF0FBECDBFB9
:1040B000FC0109831A832B833C834D835E836F83CA
:1040C000788789869A86AB86BC86CD86DE86EF8623
:1040D000F88AAD80BE80CF80D884ED84FE840F85C1
:1040E000188989859A85AB85BC8529813A814B8160
:1040F0005C81820F931FA41FB51F80839183A283CD
:10410000B383EA0CFB1C0C1D1D1DE482F5820683A3
:104110001783CF010E94222081E090E060960FB6C5
:10412000F894DEBF0FBECDBFDF91CF911F910F91ED
:10413000FF90EF90DF90CF90BF90AF909F908F90C7
:104140000895609361097093620980936309909365
:104150006409209365093093660940936709509379
:10416000680908958F929F92AF92BF92CF92DF928B
:10417000EF92FF920F931F93CF93DF93CDB7DEB7EC
:1041800028970FB6F894DEBF0FBECDBF29833A83C0
:104190004B835C836D837E838F8398878D809E8025
:1041A000AF80B884E980FA800B811C81E114F104AE
:1041B0000105110501F180E09AECAAE9BBE3880E44
:1041C000991EAA1EBB1EC501B40123EB36EE4EE0BC
:1041D00050E00E94AC2C69010894E108F108010943
:1041E00011098AE0EE0CFF1C001F111F8A95D1F700
:1041F000CE0CDF1C09C0C501B40123EB36EE4EE046
:1042000050E00E94AC2C6901B60102C060507440BD
:1042100094E061307907D0F78827992723EB36EEB1
:104220004EE050E00E94792C675A7C48884F9F4F9F
:10423000681579058A059B0518F40894C11CD11CE2
:10424000C60128960FB6F894DEBF0FBECDBFDF9132
:10425000CF911F910F91FF90EF90DF90CF90BF9083
:10426000AF909F908F9008952F923F924F925F92C0
:104270006F927F928F929F92AF92BF92CF92DF9276
:10428000EF92FF920F931F93CF93DF93CDB7DEB7DB
:1042900028970FB6F894DEBF0FBECDBF7B018C010F
:1042A00073708070907023EB36EE4EE050E00E9409
:1042B000792C6D837E838F8398879AE01695079576
:1042C000F794E7949A95D1F7E982FA820B831C83DD
:1042D000988529803A804B805C806D807E808F80BD
:1042E000222D332D442D552D662D772D882D289682
:1042F0000FB6F894DEBF0FBECDBFDF91CF911F91F7
:104300000F91FF90EF90DF90CF90BF90AF909F9074
:104310008F907F906F905F904F903F902F90089577
:10432000AF92BF92CF92DF92EF92FF920F931F93C3
:10433000CF93DF93CDB7DEB728970FB6F894DEBFE3
:104340000FBECDBF29833A834B835C836D837E830D
:104350008F839887AD80BE80CF80D884E980FA8033
:104360000B811C81E114F1040105110509F180E0C4
:104370009AECAAE9BBE3A80EB91ECA1EDB1EC60151
:10438000B50123EB36EE4EE050E00E94AC2C0894D1
:10439000E108F108010911096AE0EE0CFF1C001F99
:1043A000111F6A95D1F7E20EF31E041F151F0AC0F4
:1043B000C601B50123EB36EE4EE050E00E94AC2C76
:1043C00079018A01C801B70104C06050744080407F
:1043D00090406130A4E07A07A0E08A07A0E09A0745
:1043E000A0F723EB36EE4EE050E00E94792C675A9E
:1043F0007C48884F9F4F6A157B058C059D0528F4E6
:104400000894E11CF11C011D111DC801B70128967B
:104410000FB6F894DEBF0FBECDBFDF91CF911F91D5
:104420000F91FF90EF90DF90CF90BF90AF900895E5
:10443000EF92FF920F931F93CF93DF93EC01809144
:10444000610990916209A0916309B0916409888320
:104450009983AA83BB83E0906509F0906609009177
:10446000670910916809EC82FD820E831F830E9408
:104470009A269927AA27BB27BC01CD0123EB36EE4C
:104480004EE050E00E94792CE60EF71E081F191F1F
:10449000EC82FD820E831F8313C080509A4CAA4980
:1044A000BB438C839D83AE83BF8388819981AA811E
:1044B000BB810196A11DB11D88839983AA83BB830B
:1044C0008C819D81AE81BF8180302AEC92072AE9E0
:1044D000A2072BE3B20708F7DF91CF911F910F914D
:1044E000FF90EF9008950E949B180E9493268531BB
:1044F00030F481E080935E090E94232809C08AE09D
:1045000090E00E944F2682E080935E090E94172867
:1045100080911307853519F088E00E94BD178091BE
:104520007E10853501F388E00E94BD17DCCF2F9205
:104530003F924F925F926F927F928F929F92AF9233
:10454000BF92CF92DF92EF92FF920F931F93CF9380
:10455000DF93CDB7DEB724970FB6F894DEBF0FBE5A
:10456000CDBF0E94DA120E945B260E9461269A83C8
:1045700089838AEF0E9497260E94F527E0916A09B5
:10458000F0916B098084A0906509B0906609C09095
:104590006709D090680960911107772788279927C4
:1045A00023EB36EE4EE050E00E94792C7B018C012B
:1045B000EA0CFB1C0C1D1D1DC801B70124C0E12C19
:1045C00076E3F72E75E6072F74EC172FE80EF91E29
:1045D0000A1F1B1F8091610990916209A0916309D4
:1045E000B09164090196A11DB11D8093610990935A
:1045F0006209A0936309B0936409C801B70123EB72
:1046000036EE4EE050E00E94AC2CE61AF70A080B9A
:10461000190BE0926509F0926609009367091093FF
:1046200068098091650990916609A0916709B09128
:10463000680980302AEC92072AE9A2072BE3B20727
:1046400008F0BDCFE0916A09F0916B09858188235C
:10465000B9F181858430A1F18781823029F08823E6
:1046600041F08681882311F485E001C083E08187D1
:104670000CC083E08187E0916A09F0916B09178291
:10468000E0916A09F0916B091682E0916A09F09154
:104690006B0980850E94231CE0916A09F0916B09E7
:1046A0008085992787FD90959F938F938CE694E062
:1046B0009F938F930E948B2A0F900F900F900F90D3
:1046C000E0916A09F0916B09868D978D892B09F429
:1046D0005CC06085662309F458C08185843009F484
:1046E00054C087A1882321F1862F992787FD9095B3
:1046F0009F938F9389E894E09F938F930E948B2AD6
:10470000E0916A09F0916B0981E086A3209111077D
:104710003327828D938D281B390B868D978D821BB5
:10472000930B938F828F0F900F900F900F902DC04F
:10473000228D338D80911107482F55272417350777
:1047400050F482E00E947C17E0916A09F0916B09B5
:10475000138E128E04C0241B350B338F228FE091F1
:104760006A09F0916B091085828D938D892B69F40C
:10477000612F83E00E947C17E0916A09F0916B0938
:1047800083E08187812F0E94231CE0916A09F091C8
:104790006B0987A1882309F470C022A133A18091FD
:1047A000110799278217930798F18085992787FD2C
:1047B00090959F938F938EEB94E09F938F930E949D
:1047C0008B2AE0916A09F0916B0984A195A122A13D
:1047D00033A1820F931F20911107821B910993A38C
:1047E00082A3808D918D248D358D820F931F918FA3
:1047F000808F80850E94231CE0916A09F0916B09EB
:1048000080850E94BD1E0F900F900F900F9004C0E6
:10481000281B390B33A322A3E0916A09F0916B099D
:1048200082A193A19F938F938085992787FD90956F
:104830009F938F938FEE94E09F938F930E948B2A88
:10484000E0916A09F0916B09808D918D9F938F9310
:104850008085992787FD90959F938F938CE095E0B5
:104860009F938F930E948B2A4DB75EB7445F5F4F33
:104870000FB6F8945EBF0FBE4DBF6CEDA62E67E07D
:10488000B62EC50103979C838B8300E61AEECC24D9
:10489000DD245EE2252E55E0352E41E5442E45E02F
:1048A000542E3DE9632E35E0732E9C2CEB81FC8168
:1048B00083818F3F09F433C11082882309F43FC0FC
:1048C00084818430E1F1218932898091110799270F
:1048D0002817390728F0281B390B328B218B04C08D
:1048E000EB81FC81128A118AEB81FC812389348956
:1048F0008091110799272817390728F0281B390BB1
:10490000348B238B12C0EB81FC816789708D8617F5
:10491000970728F4681B790B748B638B06C00E9481
:10492000982CEB81FC81948B838BEB81FC818389B8
:104930009489892B21F48789908D948B838BEB81CB
:10494000FC818481833009F0EAC081899289892BB6
:1049500009F0DBC082818823A1F08181882389F05E
:1049600081E090E0A0E0B0E000905A0904C0880F18
:10497000991FAA1FBB1F0A94D2F785879687A7871E
:10498000B08BEB81FC81128211821082238D348DD9
:10499000818D928D2130310509F09FC0968B858BDA
:1049A00082E0848383899489928B818BF501878D42
:1049B000882309F482C0DF92CF923F922F920E9407
:1049C0008B2AE0916A09F0916B0916A2EB81FC81B8
:1049D0008389948928EEE22E23E0F22E8E9D9001A9
:1049E0008F9D300D9E9D300D1124858D968D678D88
:1049F00070A1AC014E9DC0014F9D900D5E9D900D2C
:104A000011240E94982C8789908DFC016E9FC00113
:104A10006F9F900D7E9F900D11240F900F900F901F
:104A20000F908217930708F448C0DF92CF925F92ED
:104A30004F920E948B2AEB81FC81858D968D678D2C
:104A400070A19C012E9DC0012F9D900D3E9D900D4B
:104A500011240E94982C8789908DAC01649FC0011D
:104A6000659F900D749F900D11249F938F93838960
:104A70009489FC01EE9DC001EF9D900DFE9D900D6F
:104A800011249F938F937F926F920E948B2AEB81C8
:104A9000FC81878D90A1968F858F8789908D948BCF
:104AA000838B892D0E94231C2DB73EB7265F3F4F75
:104AB0000FB6F8943EBF0FBE2DBF892D0E94BD1EBC
:104AC000DF92CF924DEB55E05F934F930E948B2A7C
:104AD0000F900F900F900F9018C0EB81FC81968B78
:104AE000858B215030408789908DAC01249FC00177
:104AF000259F900D349F900D1124928B818B948B68
:104B0000838B81E090E0948F838FEB81FC8181899E
:104B10009289009721F08017910708F48C0108947E
:104B2000C11CD11C28E230E0A20EB31E4B815C8177
:104B3000485D5F4F5C834B8359E0C516D10409F093
:104B4000B4CE0E941C1CF82E992787FD909568E230
:104B500070E0869FF001879FF00D969FF00D112465
:104B6000EC52F84F83859927AA27BB272091060688
:104B70003091070640910806509109062817390719
:104B80004A075B0708F0F82C8F2D992787FD909531
:104B9000869FF001879FF00D969FF00D1124EC5237
:104BA000F84F828580936C0988E22F2D2802C0017E
:104BB00011248C52984F90935C0980935B09FF20DD
:104BC00091F0868D978D892B51F0828D938D8A3F40
:104BD000910528F480179107E0F48C011AC00B3F6F
:104BE0001105B8F014C00531110598F0C8014497BB
:104BF0008A3F910530F48C01439758F403E110E0AB
:104C000008C00F50114018F406EE10E002C00AEF81
:104C100010E080916C0980935D0980915B0990910F
:104C20005C0990936B0980936A09009311070E94B5
:104C30009A2699278017910740F00E949A26082FFC
:104C400011270E5F1F4F00931107FF2011F01092E4
:104C50005E09802F0E9497266EEE72E089819A810C
:104C60000E947C270E946C280E94AA2824960FB6D6
:104C7000F894DEBF0FBECDBFDF91CF911F910F9192
:104C8000FF90EF90DF90CF90BF90AF909F908F906C
:104C90007F906F905F904F903F902F90089500000D
:104CA0000000000000000197D1F708951EBC089590
:104CB00081E08EBD089580B5816080BD1DBC1CBCA7
:104CC0000895CF93DF93CDB7DEB722970FB6F89450
:104CD000DEBF0FBECDBF8CB59DB59A838983898118
:104CE0009A8122960FB6F894DEBF0FBECDBFDF913A
:104CF000CF91089582BF089513BE87B78D7F87BF78
:104D000087B78E7F87BF08958BE083BF87B78360A7
:104D100087BF089580B5826080BD12BE1092E10504
:104D200010921107089581B78F5F992708958150D8
:104D300081BF089582B7992708950F920FB60F92F9
:104D40001F922F923F924F925F926F927F928F921B
:104D50009F92AF92BF92CF92DF92EF92FF920F930A
:104D60001F932F933F934F935F936F937F938F93F3
:104D70009F93AF93BF93CF93DF93EF93FF93A09154
:104D80006A09B0916B090DB60D920EB60D921F9285
:104D9000A0910E07B0910F071E90BEBFADBF089542
:104DA000882319F487B78F7787BF8FEF9FEF089518
:104DB000882319F08FEF9FEF089514BC81E090E0F5
:104DC0000895882319F080E090E0089584B599272C
:104DD0000895882319F08FEF9FEF089587B78068B3
:104DE00087BF81E090E00895882319F08FEF9FEF4F
:104DF0000895CB010197059710F46093100788E0A0
:104E000085BD43BD3093DF052093DE0580911007FB
:104E1000813019F485B5816009C0823019F485B5F7
:104E2000826004C0833021F485B5836085BD07C0EE
:104E3000843019F485B58460F9CF853019F081E0AC
:104E400090E0089585B5856085BD81E090E0089586
:104E50001F920F920FB60F9211242F933F934F93EF
:104E60005F936F937F938F939F93AF93BF93EF93D2
:104E7000FF93E091DE05F091DF05309711F0099581
:104E800004C060E08AE00E947C17FF91EF91BF911F
:104E9000AF919F918F917F916F915F914F913F91D2
:104EA0002F910F900FBE0F901F9018951F920F9289
:104EB0000FB60F9211242F933F934F935F936F93ED
:104EC0007F938F939F93AF93BF93EF93FF9360E094
:104ED0008AE00E947C17FF91EF91BF91AF919F9163
:104EE0008F917F916F915F914F913F912F910F9093
:104EF0000FBE0F901F901895CF93DF93CDB7DEB7FD
:104F000022970FB6F894DEBF0FBECDBFFC018FEF26
:104F1000E937F80710F0E0E0F0E09F01442755275B
:104F2000CB01AA27BB27280F391F4A1F5B1F21303F
:104F300080E0380781E0480780E0580768F08CB5CA
:104F40009DB59A83898389819A81E817F907B8F317
:104F500020503040414050408CB59DB59A838983A4
:104F600089819A8182179307B8F322960FB6F89435
:104F7000DEBF0FBECDBFDF91CF9108951F939EEF8F
:104F80009093110788E080BF91BF93E096BF1BE02C
:104F900013BF80B5876080BD96BF13BF80B58760A3
:104FA00080BD1FBC81E08EBD1DBC1CBC80B5816076
:104FB00080BD0E948A2613BF87B7836087BF109287
:104FC000E1051F91089583B790E0811191E081E0A0
:104FD0009827892F9927089504B603FC03C081E020
:104FE00090E008958FEF9FEF0895A89508950E948F
:104FF000DA12A89584B7877F84BF81B5886181BDA7
:1050000011BC0E94DC1208950E94DA1284B7877FD7
:1050100084BFA89581B5886181BD8FE081BD0E9464
:10502000DC1208950895FC0176836583089585B7A1
:10503000837E886185BF85B7806285BF889585B787
:105040008F7D85BF089585B7837E85BF85B78062D4
:1050500085BF889585B78F7D85BF0895FB01DA01EF
:1050600025E52C933297292F33272083818332978C
:10507000118210823297118210823297118210822F
:1050800032971182108232971182108232971182E8
:1050900010823297118210823297118210823297D9
:1050A00011821082329711821082329711821082FF
:1050B00032971182108232971182108232971182B8
:1050C00010823297118210823297118210823297A9
:1050D00011821082CF01089521EE32E1832F9927AA
:1050E0008093FE102093FF10089585E580937E1035
:1050F000EEEFF0E1F0930F07E0930E0721EE32E1BF
:10510000832F992780832093FF1008950E94BE2744
:105110000E94DC120895EF92FF920F931F93CF939A
:10512000DF937C018B01EA014032510518F481E1E3
:105130000E94BD17C80101978C0F9D1FF701928334
:10514000818314830383DF91CF911F910F91FF908F
:10515000EF900895A0915B09B0915C09CD91CDBF0E
:10516000DD91DEBFFF91EF91DF91CF91BF91AF91C4
:105170009F918F917F916F915F914F913F912F916F
:105180001F910F91FF90EF90DF90CF90BF90AF9065
:105190009F908F907F906F905F904F903F902F9057
:1051A0001F900F900FBE0F901895ABE0B0E0EBEDA5
:1051B000F8E20C94CE2C4C016B017A01FC011782B1
:1051C0001682838181FD08C08FEF9FEF1AC122E014
:1051D00030E0E20EF31E0CC09EE8292E92E0392E3C
:1051E0003E010894611C711C87E8482E82E0582E0D
:1051F000F4010381F60103FD859103FF81916F01A5
:10520000882309F4FBC0853259F403FD659103FF3F
:1052100061916F01653219F0162FBB241CC085E225
:10522000B40199272AC0112359F1612F7727C101B1
:105230000E94052A892B49F4133219F4F0E1BF2AA0
:1052400004C01C3661F420E8B22AF60103FD159172
:1052500003FF11916F01B7FEE6CF112389F0612F93
:105260007727C2010E94052A892B51F024E030E003
:10527000E20EF31EB4018FE390E00E945E2AB8CFE5
:10528000133629F0133781F01335F9F40BC0870179
:105290000E5F1F4FB401F701808191810E945E2A49
:1052A0007801A6CFF1E0BF2AF7010081118104C087
:1052B000B40199270E945E2AF801B0FC8591B0FEE6
:1052C00081918F018823A1F782CF143611F019360E
:1052D00049F5B7FE0AC0F70160817181828193812F
:1052E00024E030E0E20EF31E0DC0F70180819181D1
:1052F0009C01B901882777FD8095982F42E050E006
:10530000E40EF51E5FEEB52297FF09C090958095DB
:10531000709561957F4F8F4F9F4FE0E4BE2A2AE042
:1053200030E03AC01037B1F0113730F41835C9F019
:105330001F3609F063C006C0153739F0183709F079
:105340005DC00AC028E030E010C0FFEEBF222AE0B6
:1053500030E00BC020E1B22A34E2B32A20E130E091
:1053600004C044E0B42A20E132E0B7FE0AC0F701ED
:10537000608171818281938144E050E0E40EF51EEA
:105380000BC0F70180819181AC01BA018827992770
:10539000E2E0F0E0EE0EFF1EA3010E94FA2AA82E22
:1053A000A6180B2D112706FF05C0B4018DE290E071
:1053B0000E945E2A04FF15C0FE01EA0DF11D8081E6
:1053C000803379F0B40180E390E00E945E2A02FF0E
:1053D00008C000721070B401C801885A9F4F0E9423
:1053E0005E2AAA94F301EA0DF11D8081B401992788
:1053F0000E945E2AAA2009F4FBCEF3CFF401868135
:105400009781E2E12B960C94EA2CFC01059006169C
:1054100021F00020D9F7C00108953197CF010895F8
:10542000EF92FF920F931F93CF93DF938C017B0139
:10543000892B11F4672BD1F16EE070E081E090E0F0
:105440000E94582BFC01009789F1DC0180E88383DE
:10545000E114F10471F0F386E28681E883838091A0
:105460009F099091A009892B21F4F093A009E09362
:105470009F0901151105E1F0118700878381826082
:1054800083838091A1099091A209892B89F4F093DB
:10549000A209E093A1098091A3099091A409892B05
:1054A00039F4F093A409E093A30902C0A0E0B0E0AE
:1054B000CD01E6E0CDB7DEB70C94F62C0F931F9329
:1054C000CF93DF938C01EB018B81992781FF1BC068
:1054D00082FF0DC02E813F818C819D812817390765
:1054E00064F4E881F9810193F983E88306C0E885D3
:1054F000F985802F0995892B31F48E819F81019642
:105500009F838E8302C00FEF1FEFC801DF91CF9101
:105510001F910F910895A2E0B0E0E1E9FAE20C9446
:10552000DE2CFE01379661917191FA83E983AF0118
:105530008091A1099091A2090E94D528E2E02296CB
:105540000C94FA2C0F931F93CF93DF938C01E0916F
:10555000A109F091A209838181FF1FC0C0E0D0E0C2
:105560000AC0FD0120853185BD01F9010995892B0E
:1055700011F0CFEFDFEFF80181918F01A091A10928
:10558000B091A209882369F7FD0120853185BD010D
:105590008AE0F9010995892B11F0CFEFDFEFCE01F9
:1055A000DF91CF911F910F910895A0E1B0E0EBED55
:1055B000FAE20C94DC2C0F89188D86E08E831C8314
:1055C0000B838FEF9FE798878F83AE01455E5F4F18
:1055D0005A834983698D7A8DCE0103960E94D5281E
:1055E00029853A85020F131FF8011082E4E06096C6
:1055F0000C94F82CFA01AA27283051F1203181F1BE
:10560000E8946F936E7F6E5F7F4F8F4F9F4FAF4FCA
:10561000B1E03ED0B4E03CD0670F781F891F9A1FDD
:10562000A11D680F791F8A1F911DA11D6A0F711D91
:10563000811D911DA11D20D009F468943F912AE09D
:10564000269F11243019305D3193DEF6CF01089585
:10565000462F4770405D4193B3E00FD0C9F7F6CFB6
:10566000462F4F70405D4A3318F0495D31FD40527E
:10567000419302D0A9F7EACFB4E0A6959795879514
:1056800077956795BA95C9F70097610571050895F3
:105690009B01AC010A2E069457954795379527959F
:1056A000BA95C9F7620F731F841F951FA01D089537
:1056B0000F931F93CF93DF93689F8001699F100D15
:1056C000789F100D1124C8010E94742BEC010097E3
:1056D00029F0A80160E070E00E94722CCE01DF91F9
:1056E000CF911F910F910895CF93DF93AC01029753
:1056F00010F442E050E0A091A709B091A809FD0183
:10570000C0E0D0E020E030E020C0808191818417AB
:10571000950769F482819381209719F09B838A838E
:1057200004C09093A8098093A7099F0132C048172D
:10573000590738F42115310519F08217930708F439
:105740009C01EF010280F381E02D3097F1F62115E5
:10575000310599F1C901841B950B049708F4A9013F
:10576000E0E0F0E028C08D919C911197821793079B
:10577000F9F44817590781F4ED018A819B8130972C
:1057800019F09383828304C09093A8098093A7099A
:105790009D012E5F3F4F4CC0841B950BFD01E80F10
:1057A000F91F4193519302978D939C939F0140C0A1
:1057B000FD01A281B3811097B1F68091A509909166
:1057C000A609892B41F48091DA059091DB0590932D
:1057D000A6098093A5092091DC053091DD052115EE
:1057E000310549F48DB7282F33278091D805909142
:1057F000D905281B390BA091A509B091A6092A1B30
:105800003B0B2417350790F0CA0102962817390779
:1058100068F09D012E5F3F4FC901840F951F909343
:10582000A6098093A5094D935C9302C020E030E067
:10583000C901DF91CF910895CF93DF93009709F4C9
:105840004EC0EC0122971B821A82A091A709B09149
:10585000A809109711F140E050E001C0DC01AC173D
:10586000BD0700F1BB83AA83FE0121913191E20FB4
:10587000F31FEA17FB0771F48D919C911197280F84
:10588000391F2E5F3F4F39832883FD018281938129
:105890009B838A834115510559F4D093A809C0937D
:1058A000A7091DC0FD0182819381AD010097B1F66A
:1058B000FA01D383C28321913191E20FF31FEC17D8
:1058C000FD0769F488819981280F391F2E5F3F4FAA
:1058D000FA01318320838A819B8193838283DF91C4
:1058E000CF910895DC0101C06D9341505040E0F725
:1058F0000895629FD001739FF001829FE00DF11D1A
:10590000649FE00DF11D929FF00D839FF00D749F39
:10591000F00D659FF00D9927729FB00DE11DF91FE5
:10592000639FB00DE11DF91FBD01CF011124089542
:10593000AA1BBB1B51E107C0AA1FBB1FA617B707B5
:1059400010F0A61BB70B881F991F5A95A9F78095D1
:105950009095BC01CD010895A1E21A2EAA1BBB1B94
:10596000FD010DC0AA1FBB1FEE1FFF1FA217B3072B
:10597000E407F50720F0A21BB30BE40BF50B661F41
:10598000771F881F991F1A9469F760957095809505
:1059900090959B01AC01BD01CF0108952F923F92DC
:1059A0004F925F926F927F928F929F92AF92BF922F
:1059B000CF92DF92EF92FF920F931F93CF93DF93DB
:1059C000CDB7DEB7CA1BDB0B0FB6F894DEBF0FBE38
:1059D000CDBF09942A88398848885F846E847D8485
:1059E0008C849B84AA84B984C884DF80EE80FD8087
:1059F0000C811B81AA81B981CE0FD11D0FB6F894FD
:105A0000DEBF0FBECDBFED010895E199FECFBFBB54
:0C5A1000AEBBE09A11960DB20895FFCFD6
:105A1C005461736B3132205049443D25640D0A00AA
:105A2C005461736B313220636E743D25640D0A0032
:105A3C005374617274696E672075702E2E2E0D0072
:105A4C00536C6565702073746172742028256C75B5
:105A5C00206E616E6F73290D0A00536C65657020A2
:105A6C00656E640D005461736B3136205049443DB2
:105A7C0025640D0A005461736B313620636E743DDE
:105A8C0025640D0A005461736B3135205049443D37
:105A9C0025640D0A005461736B313520636E743DBF
:105AAC0025640D0A005461736B3134205049443D18
:105ABC0025640D0A005461736B313420636E743DA0
:105ACC0025640D0A005461736B3133205049443DF9
